:100000000C942A000C943F000C943F000C943F0089
:100010000C943F000C943F000C943F000C943F0064
:100020000C943F000C943F000C943F000C943F0054
:100030000C943F000C943F000C943F000C943F0044
:100040000C943F000C943F000C943F000C943F0034
:100050000C943F0011241FBECFE5D8E0DEBFCDBF1A
:1000600010E0A0E6B0E0E0E9F5E002C005900D92F6
:10007000A436B107D9F70E9441000C94C6020C9433
:100080000000CF93DF931F92CDB7DEB7809162005F
:10009000909163000E9475008091600090916100D2
:1000A0000E94CB00BE016F5F7F4F809162009091F4
:1000B00063000E947D008111F5CF8981813091F725
:1000C00080916000909161000E94D300BE016F5F3B
:1000D0007F4F80916200909163000E947D008111AA
:1000E000E1CF8981813091F3DDCF40E0692F0E941B
:1000F000D001843109F481E20895BF92CF92DF925A
:10010000EF92FF920F931F93CF93DF931F92CDB780
:10011000DEB76115710551F16B01692FF92EE82EDB
:10012000AE014F5F5F4F0E944A02B82E86E1B816BB
:1001300011F110E000E0AE014F5F5F4F6F2D8E2D8B
:100140000E944A028981813021F40F5F898310E087
:1001500005C0811103C01F5F198200E0053011F056
:10016000153049F78981F601808309C00F2EF2E22C
:10017000BF2EF02D04C00F2EF2E2BF2EF02D8B2DDE
:100180000F90DF91CF911F910F91FF90EF90DF9033
:10019000CF90BF90089541E0692F0E94DA0084312A
:1001A00009F481E30895692F0E948802883109F4D7
:1001B00084E30895683008F0E7C0813009F43FC057
:1001C00038F0823009F472C0833009F4A6C0DEC072
:1001D000413049F118F0423091F0DAC02AB381E0A1
:1001E00090E002C0880F991F6A95E2F78095922FE0
:1001F00098239ABB9BB389238BBB80E0089580B77B
:100200008B7F80BF2AB381E090E002C0880F991FE6
:100210006A95E2F7982F909592239ABB9BB3892B0E
:100220008BBB80E008952AB381E090E002C0880F84
:10023000991F6A95E2F7822B8ABB80E008954130CE
:1002400049F118F0423091F0A5C027B381E090E069
:1002500002C0880F991F6A95E2F78095922F982324
:1002600097BB98B3892388BB80E0089580B78B7FC4
:1002700080BF27B381E090E002C0880F991F6A9584
:10028000E2F7982F9095922397BB98B3892B88BB60
:1002900080E0089527B381E090E002C0880F991FA5
:1002A0006A95E2F7822B87BB80E00895413049F1DF
:1002B00018F0423091F070C024B381E090E002C0A9
:1002C000880F991F6A95E2F78095922F982394BB27
:1002D00095B3892385BB80E0089580B78B7F80BF6D
:1002E00024B381E090E002C0880F991F6A95E2F77D
:1002F000982F9095922394BB95B3892B85BB80E072
:10030000089524B381E090E002C0880F991F6A9598
:10031000E2F7822B84BB80E00895413049F118F068
:10032000423091F03BC021B381E090E002C0880FE1
:10033000991F6A95E2F78095922F982391BB9BB302
:1003400089238BBB80E0089580B78B7F80BF21B36A
:1003500081E090E002C0880F991F6A95E2F7982F1C
:100360009095922391BB92B3892B82BB80E0089534
:1003700021B381E090E002C0880F991F6A95E2F7EF
:10038000822B81BB80E0089582E1089582E1089587
:1003900082E1089582E1089582E1089582E108955D
:1003A000683008F06BC0813001F130F08230B1F17B
:1003B000833009F44BC064C0423008F063C05BB3C3
:1003C00021E030E0062E02C0220F331F0A94E2F72C
:1003D000842F90E002C0880F991F6A95E2F720955C
:1003E0002523822B8BBB80E00895423008F04CC05F
:1003F00058B321E030E0062E02C0220F331F0A94CA
:10040000E2F7842F90E002C0880F991F6A95E2F707
:1004100020952523822B88BB80E008954230B0F5DB
:1004200055B321E030E0062E02C0220F331F0A949C
:10043000E2F7842F90E002C0880F991F6A95E2F7D7
:1004400020952523822B85BB80E00895423000F55E
:1004500052B321E030E0062E02C0220F331F0A946F
:10046000E2F7842F90E002C0880F991F6A95E2F7A7
:1004700020952523822B82BB80E0089584E1089596
:1004800084E1089584E1089584E1089584E1089564
:1004900084E108956830C0F5813091F028F0823011
:1004A000D9F0833029F132C089B390E002C095952C
:1004B00087956A95E2F78170FA01808380E008955C
:1004C00086B390E002C0959587956A95E2F78170B2
:1004D000FA01808380E0089583B390E002C095958F
:1004E00087956A95E2F78170FA01808380E008952C
:1004F00080B390E002C0959587956A95E2F7817088
:10050000FA01808380E0089586E1089586E10895E8
:100510006830C0F5813091F028F08230D9F0833016
:1005200029F132C02BB381E090E002C0880F991FFF
:100530006A95E2F782278BBB80E0089528B381E0BB
:1005400090E002C0880F991F6A95E2F7822788BB66
:1005500080E0089525B381E090E002C0880F991FE4
:100560006A95E2F7822785BB80E0089522B381E097
:1005700090E002C0880F991F6A95E2F7822782BB3C
:1005800080E0089588E1089588E10895F894FFCF08
:04059000010502045B
:00000001FF
